{
  "contractName": "Shop",
  "abi": [
    {
      "inputs": [],
      "stateMutability": "nonpayable",
      "type": "constructor"
    },
    {
      "inputs": [],
      "name": "owner",
      "outputs": [
        {
          "internalType": "address payable",
          "name": "",
          "type": "address"
        }
      ],
      "stateMutability": "view",
      "type": "function",
      "constant": true
    },
    {
      "inputs": [],
      "name": "sellerCount",
      "outputs": [
        {
          "internalType": "uint256",
          "name": "",
          "type": "uint256"
        }
      ],
      "stateMutability": "view",
      "type": "function",
      "constant": true
    },
    {
      "inputs": [
        {
          "internalType": "string",
          "name": "_name",
          "type": "string"
        }
      ],
      "name": "sellerSignUp",
      "outputs": [],
      "stateMutability": "payable",
      "type": "function",
      "payable": true
    }
  ],
  "bytecode": "0x608060405234801561001057600080fd5b50336000806101000a81548173ffffffffffffffffffffffffffffffffffffffff021916908373ffffffffffffffffffffffffffffffffffffffff160217905550610757806100606000396000f3fe6080604052600436106100345760003560e01c80631e1cdf6c1461003957806359fa9b1f146100555780638da5cb5b14610080575b600080fd5b610053600480360381019061004e9190610407565b6100ab565b005b34801561006157600080fd5b5061006a6102d2565b6040516100779190610541565b60405180910390f35b34801561008c57600080fd5b506100956102d8565b6040516100a291906104e6565b60405180910390f35b600160003373ffffffffffffffffffffffffffffffffffffffff1673ffffffffffffffffffffffffffffffffffffffff16815260200190815260200160002060010160159054906101000a900460ff161561013b576040517f08c379a000000000000000000000000000000000000000000000000000000000815260040161013290610521565b60405180910390fd5b674563918244f400003414610185576040517f08c379a000000000000000000000000000000000000000000000000000000000815260040161017c90610501565b60405180910390fd5b80600160003373ffffffffffffffffffffffffffffffffffffffff1673ffffffffffffffffffffffffffffffffffffffff16815260200190815260200160002060000190805190602001906101db9291906102fc565b5033600160003373ffffffffffffffffffffffffffffffffffffffff1673ffffffffffffffffffffffffffffffffffffffff16815260200190815260200160002060010160006101000a81548173ffffffffffffffffffffffffffffffffffffffff021916908373ffffffffffffffffffffffffffffffffffffffff16021790555060018060003373ffffffffffffffffffffffffffffffffffffffff1673ffffffffffffffffffffffffffffffffffffffff16815260200190815260200160002060010160146101000a81548160ff021916908315150217905550600260008154809291906102ca9061064b565b919050555050565b60025481565b60008054906101000a900473ffffffffffffffffffffffffffffffffffffffff1681565b82805461030890610619565b90600052602060002090601f01602090048101928261032a5760008555610371565b82601f1061034357805160ff1916838001178555610371565b82800160010185558215610371579182015b82811115610370578251825591602001919060010190610355565b5b50905061037e9190610382565b5090565b5b8082111561039b576000816000905550600101610383565b5090565b60006103b26103ad8461058d565b61055c565b9050828152602081018484840111156103ca57600080fd5b6103d584828561060a565b509392505050565b600082601f8301126103ee57600080fd5b81356103fe84826020860161039f565b91505092915050565b60006020828403121561041957600080fd5b600082013567ffffffffffffffff81111561043357600080fd5b61043f848285016103dd565b91505092915050565b610451816105ce565b82525050565b60006104646014836105bd565b91507f596f7520686176656e27742070616964207965740000000000000000000000006000830152602082019050919050565b60006104a4601a836105bd565b91507f596f752061726520616c726561647920726567697374657265640000000000006000830152602082019050919050565b6104e081610600565b82525050565b60006020820190506104fb6000830184610448565b92915050565b6000602082019050818103600083015261051a81610457565b9050919050565b6000602082019050818103600083015261053a81610497565b9050919050565b600060208201905061055660008301846104d7565b92915050565b6000604051905081810181811067ffffffffffffffff82111715610583576105826106f2565b5b8060405250919050565b600067ffffffffffffffff8211156105a8576105a76106f2565b5b601f19601f8301169050602081019050919050565b600082825260208201905092915050565b60006105d9826105e0565b9050919050565b600073ffffffffffffffffffffffffffffffffffffffff82169050919050565b6000819050919050565b82818337600083830152505050565b6000600282049050600182168061063157607f821691505b60208210811415610645576106446106c3565b5b50919050565b600061065682610600565b91507fffffffffffffffffffffffffffffffffffffffffffffffffffffffffffffffff82141561068957610688610694565b5b600182019050919050565b7f4e487b7100000000000000000000000000000000000000000000000000000000600052601160045260246000fd5b7f4e487b7100000000000000000000000000000000000000000000000000000000600052602260045260246000fd5b7f4e487b7100000000000000000000000000000000000000000000000000000000600052604160045260246000fdfea264697066735822122024fb9019612faddb9a006141e190a52f83da8d87d2076a2a2b085092644a3e7664736f6c63430008000033",
  "immutableReferences": {},
  "source": "// SPDX-License-Identifier: MIT\npragma solidity ^0.8.0;\n\n//for seller\ncontract Shop {\n    \n    //able to receive ether from seller\n    address payable public owner;\n\n    constructor() {\n        owner = payable(msg.sender);\n    }\n\n\n    //characteristic of a seller\n    struct seller {\n        string name;\n        address sellerAddress;\n        bool hasPaid;\n        bool isRegister;\n    }\n\n    mapping(address => seller) sellers;\n\n    uint public sellerCount;\n\n    //new seller \n    //he has to pay for using the platform\n    function sellerSignUp(string memory _name) public payable {\n        require(!sellers[msg.sender].isRegister, \"You are already registered\");\n        require(msg.value == 5 ether, \"You haven't paid yet\");\n        sellers[msg.sender].name = _name;\n        sellers[msg.sender].sellerAddress = msg.sender;\n        sellers[msg.sender].hasPaid = true;\n        sellerCount++;\n    }\n\n    //refund cancelled orders\n\n\n}",
  "sourcePath": "/Users/maxinejang/Documents/Solidity/amazon/truffle/contracts/Shop.sol",
  "compiler": {
    "name": "solc",
    "version": "0.8.0+commit.c7dfd78e.Emscripten.clang"
  },
  "schemaVersion": "3.4.11",
  "updatedAt": "2023-01-18T20:02:41.831Z",
  "networkType": "ethereum",
  "devdoc": {
    "kind": "dev",
    "methods": {},
    "version": 1
  },
  "userdoc": {
    "kind": "user",
    "methods": {},
    "version": 1
  }
}